{"_format":"hh-sol-artifact-1","contractName":"Doloverse","sourceName":"contracts/Doloverse.sol","abi":[{"inputs":[],"stateMutability":"nonpayable","type":"constructor"},{"anonymous":false,"inputs":[{"indexed":true,"internalType":"address","name":"account","type":"address"},{"indexed":true,"internalType":"address","name":"operator","type":"address"},{"indexed":false,"internalType":"bool","name":"approved","type":"bool"}],"name":"ApprovalForAll","type":"event"},{"anonymous":false,"inputs":[{"indexed":true,"internalType":"address","name":"previousOwner","type":"address"},{"indexed":true,"internalType":"address","name":"newOwner","type":"address"}],"name":"OwnershipTransferred","type":"event"},{"anonymous":false,"inputs":[{"indexed":true,"internalType":"address","name":"operator","type":"address"},{"indexed":true,"internalType":"address","name":"from","type":"address"},{"indexed":true,"internalType":"address","name":"to","type":"address"},{"indexed":false,"internalType":"uint256[]","name":"ids","type":"uint256[]"},{"indexed":false,"internalType":"uint256[]","name":"values","type":"uint256[]"}],"name":"TransferBatch","type":"event"},{"anonymous":false,"inputs":[{"indexed":true,"internalType":"address","name":"operator","type":"address"},{"indexed":true,"internalType":"address","name":"from","type":"address"},{"indexed":true,"internalType":"address","name":"to","type":"address"},{"indexed":false,"internalType":"uint256","name":"id","type":"uint256"},{"indexed":false,"internalType":"uint256","name":"value","type":"uint256"}],"name":"TransferSingle","type":"event"},{"anonymous":false,"inputs":[{"indexed":false,"internalType":"string","name":"value","type":"string"},{"indexed":true,"internalType":"uint256","name":"id","type":"uint256"}],"name":"URI","type":"event"},{"inputs":[],"name":"GOLD","outputs":[{"internalType":"uint256","name":"","type":"uint256"}],"stateMutability":"view","type":"function"},{"inputs":[{"internalType":"address","name":"_account","type":"address"}],"name":"accountHasTicket","outputs":[{"internalType":"bool","name":"","type":"bool"}],"stateMutability":"view","type":"function"},{"inputs":[{"internalType":"address","name":"account","type":"address"},{"internalType":"uint256","name":"id","type":"uint256"}],"name":"balanceOf","outputs":[{"internalType":"uint256","name":"","type":"uint256"}],"stateMutability":"view","type":"function"},{"inputs":[{"internalType":"address[]","name":"accounts","type":"address[]"},{"internalType":"uint256[]","name":"ids","type":"uint256[]"}],"name":"balanceOfBatch","outputs":[{"internalType":"uint256[]","name":"","type":"uint256[]"}],"stateMutability":"view","type":"function"},{"inputs":[{"internalType":"address","name":"_account","type":"address"}],"name":"getTicketsOfAccount","outputs":[{"internalType":"uint256[]","name":"","type":"uint256[]"}],"stateMutability":"view","type":"function"},{"inputs":[{"internalType":"address","name":"account","type":"address"},{"internalType":"address","name":"operator","type":"address"}],"name":"isApprovedForAll","outputs":[{"internalType":"bool","name":"","type":"bool"}],"stateMutability":"view","type":"function"},{"inputs":[],"name":"owner","outputs":[{"internalType":"address","name":"","type":"address"}],"stateMutability":"view","type":"function"},{"inputs":[{"internalType":"address[]","name":"_recipients","type":"address[]"}],"name":"printBatchToMany","outputs":[],"stateMutability":"nonpayable","type":"function"},{"inputs":[{"internalType":"address","name":"_recipient","type":"address"},{"internalType":"uint8","name":"_amount","type":"uint8"}],"name":"printBatchToOne","outputs":[],"stateMutability":"nonpayable","type":"function"},{"inputs":[{"internalType":"address","name":"_recipient","type":"address"},{"internalType":"uint256[]","name":"_tokenIds","type":"uint256[]"},{"internalType":"uint256[]","name":"_amounts","type":"uint256[]"}],"name":"printBatchToOneAdmin","outputs":[],"stateMutability":"nonpayable","type":"function"},{"inputs":[{"internalType":"address","name":"_recipient","type":"address"}],"name":"printTicket","outputs":[],"stateMutability":"nonpayable","type":"function"},{"inputs":[],"name":"renounceOwnership","outputs":[],"stateMutability":"nonpayable","type":"function"},{"inputs":[{"internalType":"address","name":"from","type":"address"},{"internalType":"address","name":"to","type":"address"},{"internalType":"uint256[]","name":"ids","type":"uint256[]"},{"internalType":"uint256[]","name":"amounts","type":"uint256[]"},{"internalType":"bytes","name":"data","type":"bytes"}],"name":"safeBatchTransferFrom","outputs":[],"stateMutability":"nonpayable","type":"function"},{"inputs":[{"internalType":"address","name":"from","type":"address"},{"internalType":"address","name":"to","type":"address"},{"internalType":"uint256","name":"id","type":"uint256"},{"internalType":"uint256","name":"amount","type":"uint256"},{"internalType":"bytes","name":"data","type":"bytes"}],"name":"safeTransferFrom","outputs":[],"stateMutability":"nonpayable","type":"function"},{"inputs":[{"internalType":"address","name":"operator","type":"address"},{"internalType":"bool","name":"approved","type":"bool"}],"name":"setApprovalForAll","outputs":[],"stateMutability":"nonpayable","type":"function"},{"inputs":[{"internalType":"bytes4","name":"interfaceId","type":"bytes4"}],"name":"supportsInterface","outputs":[{"internalType":"bool","name":"","type":"bool"}],"stateMutability":"view","type":"function"},{"inputs":[],"name":"tokenIds","outputs":[{"internalType":"uint256","name":"","type":"uint256"}],"stateMutability":"view","type":"function"},{"inputs":[{"internalType":"address","name":"newOwner","type":"address"}],"name":"transferOwnership","outputs":[],"stateMutability":"nonpayable","type":"function"},{"inputs":[{"internalType":"uint256","name":"","type":"uint256"}],"name":"uri","outputs":[{"internalType":"string","name":"","type":"string"}],"stateMutability":"view","type":"function"}],"bytecode":"0x608060405260016004553480156200001657600080fd5b506040518060600160405280602c8152602001620044c1602c913962000042816200009560201b60201c565b506200006362000057620000b160201b60201c565b620000b960201b60201c565b6200008f336000670de0b6b3a7640000604051806020016040528060008152506200017f60201b60201c565b62000d8d565b8060029080519060200190620000ad92919062000642565b5050565b600033905090565b6000600360009054906101000a900473ffffffffffffffffffffffffffffffffffffffff16905081600360006101000a81548173ffffffffffffffffffffffffffffffffffffffff021916908373ffffffffffffffffffffffffffffffffffffffff1602179055508173ffffffffffffffffffffffffffffffffffffffff168173ffffffffffffffffffffffffffffffffffffffff167f8be0079c531659141344cd1fd0a4f28419497f9722a3daafe3b4186f6b6457e060405160405180910390a35050565b600073ffffffffffffffffffffffffffffffffffffffff168473ffffffffffffffffffffffffffffffffffffffff161415620001f2576040517f08c379a0000000000000000000000000000000000000000000000000000000008152600401620001e9906200091a565b60405180910390fd5b600062000204620000b160201b60201c565b90506200023d816000876200021f886200034460201b60201c565b62000230886200034460201b60201c565b876200040d60201b60201c565b8260008086815260200190815260200160002060008773ffffffffffffffffffffffffffffffffffffffff1673ffffffffffffffffffffffffffffffffffffffff16815260200190815260200160002060008282546200029e9190620009ab565b925050819055508473ffffffffffffffffffffffffffffffffffffffff16600073ffffffffffffffffffffffffffffffffffffffff168273ffffffffffffffffffffffffffffffffffffffff167fc3d58168c5ae7397731d063d5bbf3d657854427343f4c083240f7aacaa2d0f6287876040516200031e9291906200093c565b60405180910390a46200033d816000878787876200041560201b60201c565b5050505050565b60606000600167ffffffffffffffff8111156200038a577f4e487b7100000000000000000000000000000000000000000000000000000000600052604160045260246000fd5b604051908082528060200260200182016040528015620003b95781602001602082028036833780820191505090505b5090508281600081518110620003f8577f4e487b7100000000000000000000000000000000000000000000000000000000600052603260045260246000fd5b60200260200101818152505080915050919050565b505050505050565b620004418473ffffffffffffffffffffffffffffffffffffffff166200061f60201b620010af1760201c565b1562000617578373ffffffffffffffffffffffffffffffffffffffff1663f23a6e6187878686866040518663ffffffff1660e01b81526004016200048a9594939291906200084e565b602060405180830381600087803b158015620004a557600080fd5b505af1925050508015620004d957506040513d601f19601f82011682018060405250810190620004d6919062000709565b60015b6200058b57620004e862000ba1565b806308c379a014156200054c57506200050062000cd1565b806200050d57506200054e565b806040517f08c379a0000000000000000000000000000000000000000000000000000000008152600401620005439190620008b2565b60405180910390fd5b505b6040517f08c379a00000000000000000000000000000000000000000000000000000000081526004016200058290620008d6565b60405180910390fd5b63f23a6e6160e01b7bffffffffffffffffffffffffffffffffffffffffffffffffffffffff1916817bffffffffffffffffffffffffffffffffffffffffffffffffffffffff19161462000615576040517f08c379a00000000000000000000000000000000000000000000000000000000081526004016200060c90620008f8565b60405180910390fd5b505b505050505050565b6000808273ffffffffffffffffffffffffffffffffffffffff163b119050919050565b828054620006509062000aa8565b90600052602060002090601f016020900481019282620006745760008555620006c0565b82601f106200068f57805160ff1916838001178555620006c0565b82800160010185558215620006c0579182015b82811115620006bf578251825591602001919060010190620006a2565b5b509050620006cf9190620006d3565b5090565b5b80821115620006ee576000816000905550600101620006d4565b5090565b600081519050620007038162000d73565b92915050565b6000602082840312156200071c57600080fd5b60006200072c84828501620006f2565b91505092915050565b620007408162000a08565b82525050565b6000620007538262000973565b6200075f818562000989565b93506200077181856020860162000a72565b6200077c8162000bc6565b840191505092915050565b600062000794826200097e565b620007a081856200099a565b9350620007b281856020860162000a72565b620007bd8162000bc6565b840191505092915050565b6000620007d76034836200099a565b9150620007e48262000be4565b604082019050919050565b6000620007fe6028836200099a565b91506200080b8262000c33565b604082019050919050565b6000620008256021836200099a565b9150620008328262000c82565b604082019050919050565b620008488162000a68565b82525050565b600060a08201905062000865600083018862000735565b62000874602083018762000735565b6200088360408301866200083d565b6200089260608301856200083d565b8181036080830152620008a6818462000746565b90509695505050505050565b60006020820190508181036000830152620008ce818462000787565b905092915050565b60006020820190508181036000830152620008f181620007c8565b9050919050565b600060208201905081810360008301526200091381620007ef565b9050919050565b60006020820190508181036000830152620009358162000816565b9050919050565b60006040820190506200095360008301856200083d565b6200096260208301846200083d565b9392505050565b6000604051905090565b600081519050919050565b600081519050919050565b600082825260208201905092915050565b600082825260208201905092915050565b6000620009b88262000a68565b9150620009c58362000a68565b9250827fffffffffffffffffffffffffffffffffffffffffffffffffffffffffffffffff03821115620009fd57620009fc62000b14565b5b828201905092915050565b600062000a158262000a48565b9050919050565b60007fffffffff0000000000000000000000000000000000000000000000000000000082169050919050565b600073ffffffffffffffffffffffffffffffffffffffff82169050919050565b6000819050919050565b60005b8381101562000a9257808201518184015260208101905062000a75565b8381111562000aa2576000848401525b50505050565b6000600282049050600182168062000ac157607f821691505b6020821081141562000ad85762000ad762000b43565b5b50919050565b62000ae98262000bc6565b810181811067ffffffffffffffff8211171562000b0b5762000b0a62000b72565b5b80604052505050565b7f4e487b7100000000000000000000000000000000000000000000000000000000600052601160045260246000fd5b7f4e487b7100000000000000000000000000000000000000000000000000000000600052602260045260246000fd5b7f4e487b7100000000000000000000000000000000000000000000000000000000600052604160045260246000fd5b600060033d111562000bc35760046000803e62000bc060005162000bd7565b90505b90565b6000601f19601f8301169050919050565b60008160e01c9050919050565b7f455243313135353a207472616e7366657220746f206e6f6e204552433131353560008201527f526563656976657220696d706c656d656e746572000000000000000000000000602082015250565b7f455243313135353a204552433131353552656365697665722072656a6563746560008201527f6420746f6b656e73000000000000000000000000000000000000000000000000602082015250565b7f455243313135353a206d696e7420746f20746865207a65726f2061646472657360008201527f7300000000000000000000000000000000000000000000000000000000000000602082015250565b600060443d101562000ce35762000d70565b62000ced62000969565b60043d036004823e80513d602482011167ffffffffffffffff8211171562000d1757505062000d70565b808201805167ffffffffffffffff81111562000d37575050505062000d70565b80602083010160043d03850181111562000d5657505050505062000d70565b62000d678260200185018662000ade565b82955050505050505b90565b62000d7e8162000a1c565b811462000d8a57600080fd5b50565b6137248062000d9d6000396000f3fe608060405234801561001057600080fd5b50600436106101205760003560e01c80638c7c2d63116100ad578063cfbe079d11610071578063cfbe079d14610305578063d1b75e8014610335578063e985e9c514610351578063f242432a14610381578063f2fde38b1461039d57610120565b80638c7c2d63146102635780638da5cb5b1461027f578063a22cb4651461029d578063a24e74c9146102b9578063bd0110ea146102e957610120565b80633e4bee38116100f45780633e4bee38146101d15780634e1273f4146101ef57806368b27f4d1461021f578063714cff561461023b578063715018a61461025957610120565b8062fdd58e1461012557806301ffc9a7146101555780630e89341c146101855780632eb2c2d6146101b5575b600080fd5b61013f600480360381019061013a9190612675565b6103b9565b60405161014c9190612e13565b60405180910390f35b61016f600480360381019061016a919061279a565b610482565b60405161017c9190612c36565b60405180910390f35b61019f600480360381019061019a91906127ec565b610564565b6040516101ac9190612c51565b60405180910390f35b6101cf60048036038101906101ca919061246c565b6105f8565b005b6101d9610699565b6040516101e69190612e13565b60405180910390f35b6102096004803603810190610204919061272e565b61069e565b6040516102169190612bdd565b60405180910390f35b610239600480360381019061023491906125ba565b61084f565b005b610243610900565b6040516102509190612e13565b60405180910390f35b610261610906565b005b61027d600480360381019061027891906126b1565b61098e565b005b610287610af3565b6040516102949190612b00565b60405180910390f35b6102b760048036038101906102b29190612639565b610b1d565b005b6102d360048036038101906102ce9190612407565b610b33565b6040516102e09190612bdd565b60405180910390f35b61030360048036038101906102fe9190612407565b610c27565b005b61031f600480360381019061031a9190612407565b610cdc565b60405161032c9190612c36565b60405180910390f35b61034f600480360381019061034a91906126ed565b610d28565b005b61036b60048036038101906103669190612430565b610e82565b6040516103789190612c36565b60405180910390f35b61039b6004803603810190610396919061252b565b610f16565b005b6103b760048036038101906103b29190612407565b610fb7565b005b60008073ffffffffffffffffffffffffffffffffffffffff168373ffffffffffffffffffffffffffffffffffffffff16141561042a576040517f08c379a000000000000000000000000000000000000000000000000000000000815260040161042190612cb3565b60405180910390fd5b60008083815260200190815260200160002060008473ffffffffffffffffffffffffffffffffffffffff1673ffffffffffffffffffffffffffffffffffffffff16815260200190815260200160002054905092915050565b60007fd9b67a26000000000000000000000000000000000000000000000000000000007bffffffffffffffffffffffffffffffffffffffffffffffffffffffff1916827bffffffffffffffffffffffffffffffffffffffffffffffffffffffff1916148061054d57507f0e89341c000000000000000000000000000000000000000000000000000000007bffffffffffffffffffffffffffffffffffffffffffffffffffffffff1916827bffffffffffffffffffffffffffffffffffffffffffffffffffffffff1916145b8061055d575061055c826110d2565b5b9050919050565b6060600280546105739061308f565b80601f016020809104026020016040519081016040528092919081815260200182805461059f9061308f565b80156105ec5780601f106105c1576101008083540402835291602001916105ec565b820191906000526020600020905b8154815290600101906020018083116105cf57829003601f168201915b50505050509050919050565b61060061113c565b73ffffffffffffffffffffffffffffffffffffffff168573ffffffffffffffffffffffffffffffffffffffff16148061064657506106458561064061113c565b610e82565b5b610685576040517f08c379a000000000000000000000000000000000000000000000000000000000815260040161067c90612d33565b60405180910390fd5b6106928585858585611144565b5050505050565b600081565b606081518351146106e4576040517f08c379a00000000000000000000000000000000000000000000000000000000081526004016106db90612db3565b60405180910390fd5b6000835167ffffffffffffffff811115610727577f4e487b7100000000000000000000000000000000000000000000000000000000600052604160045260246000fd5b6040519080825280602002602001820160405280156107555781602001602082028036833780820191505090505b50905060005b8451811015610844576107ee8582815181106107a0577f4e487b7100000000000000000000000000000000000000000000000000000000600052603260045260246000fd5b60200260200101518583815181106107e1577f4e487b7100000000000000000000000000000000000000000000000000000000600052603260045260246000fd5b60200260200101516103b9565b828281518110610827577f4e487b7100000000000000000000000000000000000000000000000000000000600052603260045260246000fd5b6020026020010181815250508061083d906130f2565b905061075b565b508091505092915050565b61085761113c565b73ffffffffffffffffffffffffffffffffffffffff16610875610af3565b73ffffffffffffffffffffffffffffffffffffffff16146108cb576040517f08c379a00000000000000000000000000000000000000000000000000000000081526004016108c290612d73565b60405180910390fd5b6108e6838383604051806020016040528060008152506114a4565b81516004546108f59190612f76565b600481905550505050565b60045481565b61090e61113c565b73ffffffffffffffffffffffffffffffffffffffff1661092c610af3565b73ffffffffffffffffffffffffffffffffffffffff1614610982576040517f08c379a000000000000000000000000000000000000000000000000000000000815260040161097990612d73565b60405180910390fd5b61098c600061170e565b565b61099661113c565b73ffffffffffffffffffffffffffffffffffffffff166109b4610af3565b73ffffffffffffffffffffffffffffffffffffffff1614610a0a576040517f08c379a0000000000000000000000000000000000000000000000000000000008152600401610a0190612d73565b60405180910390fd5b6060806000600454905060005b8460ff16811015610ad0576001848281518110610a5d577f4e487b7100000000000000000000000000000000000000000000000000000000600052603260045260246000fd5b60200260200101818152505081838281518110610aa3577f4e487b7100000000000000000000000000000000000000000000000000000000600052603260045260246000fd5b6020026020010181815250508180610aba906130f2565b9250508080610ac8906130f2565b915050610a17565b50610aec858385604051806020016040528060008152506114a4565b5050505050565b6000600360009054906101000a900473ffffffffffffffffffffffffffffffffffffffff16905090565b610b2f610b2861113c565b83836117d4565b5050565b6060600060045467ffffffffffffffff811115610b79577f4e487b7100000000000000000000000000000000000000000000000000000000600052604160045260246000fd5b604051908082528060200260200182016040528015610ba75781602001602082028036833780820191505090505b5090506000600190505b600454811015610c1d57610bc584826103b9565b828281518110610bfe577f4e487b7100000000000000000000000000000000000000000000000000000000600052603260045260246000fd5b6020026020010181815250508080610c15906130f2565b915050610bb1565b5080915050919050565b610c2f61113c565b73ffffffffffffffffffffffffffffffffffffffff16610c4d610af3565b73ffffffffffffffffffffffffffffffffffffffff1614610ca3576040517f08c379a0000000000000000000000000000000000000000000000000000000008152600401610c9a90612d73565b60405180910390fd5b610cc181600454600160405180602001604052806000815250611941565b60046000815480929190610cd4906130f2565b919050555050565b600080600090506000600190505b600454811015610d1e576000610d0085836103b9565b1115610d0b57600191505b8080610d16906130f2565b915050610cea565b5080915050919050565b610d3061113c565b73ffffffffffffffffffffffffffffffffffffffff16610d4e610af3565b73ffffffffffffffffffffffffffffffffffffffff1614610da4576040517f08c379a0000000000000000000000000000000000000000000000000000000008152600401610d9b90612d73565b60405180910390fd5b60606000600454905060005b8351811015610e7c5781838281518110610df3577f4e487b7100000000000000000000000000000000000000000000000000000000600052603260045260246000fd5b602002602001018181525050610e5b848281518110610e3b577f4e487b7100000000000000000000000000000000000000000000000000000000600052603260045260246000fd5b602002602001015160018460405180602001604052806000815250611941565b8180610e66906130f2565b9250508080610e74906130f2565b915050610db0565b50505050565b6000600160008473ffffffffffffffffffffffffffffffffffffffff1673ffffffffffffffffffffffffffffffffffffffff16815260200190815260200160002060008373ffffffffffffffffffffffffffffffffffffffff1673ffffffffffffffffffffffffffffffffffffffff16815260200190815260200160002060009054906101000a900460ff16905092915050565b610f1e61113c565b73ffffffffffffffffffffffffffffffffffffffff168573ffffffffffffffffffffffffffffffffffffffff161480610f645750610f6385610f5e61113c565b610e82565b5b610fa3576040517f08c379a0000000000000000000000000000000000000000000000000000000008152600401610f9a90612cf3565b60405180910390fd5b610fb08585858585611ad7565b5050505050565b610fbf61113c565b73ffffffffffffffffffffffffffffffffffffffff16610fdd610af3565b73ffffffffffffffffffffffffffffffffffffffff1614611033576040517f08c379a000000000000000000000000000000000000000000000000000000000815260040161102a90612d73565b60405180910390fd5b600073ffffffffffffffffffffffffffffffffffffffff168173ffffffffffffffffffffffffffffffffffffffff1614156110a3576040517f08c379a000000000000000000000000000000000000000000000000000000000815260040161109a90612cd3565b60405180910390fd5b6110ac8161170e565b50565b6000808273ffffffffffffffffffffffffffffffffffffffff163b119050919050565b60007f01ffc9a7000000000000000000000000000000000000000000000000000000007bffffffffffffffffffffffffffffffffffffffffffffffffffffffff1916827bffffffffffffffffffffffffffffffffffffffffffffffffffffffff1916149050919050565b600033905090565b8151835114611188576040517f08c379a000000000000000000000000000000000000000000000000000000000815260040161117f90612dd3565b60405180910390fd5b600073ffffffffffffffffffffffffffffffffffffffff168473ffffffffffffffffffffffffffffffffffffffff1614156111f8576040517f08c379a00000000000000000000000000000000000000000000000000000000081526004016111ef90612d13565b60405180910390fd5b600061120261113c565b9050611212818787878787611d59565b60005b845181101561140f576000858281518110611259577f4e487b7100000000000000000000000000000000000000000000000000000000600052603260045260246000fd5b60200260200101519050600085838151811061129e577f4e487b7100000000000000000000000000000000000000000000000000000000600052603260045260246000fd5b60200260200101519050600080600084815260200190815260200160002060008b73ffffffffffffffffffffffffffffffffffffffff1673ffffffffffffffffffffffffffffffffffffffff1681526020019081526020016000205490508181101561133f576040517f08c379a000000000000000000000000000000000000000000000000000000000815260040161133690612d53565b60405180910390fd5b81810360008085815260200190815260200160002060008c73ffffffffffffffffffffffffffffffffffffffff1673ffffffffffffffffffffffffffffffffffffffff168152602001908152602001600020819055508160008085815260200190815260200160002060008b73ffffffffffffffffffffffffffffffffffffffff1673ffffffffffffffffffffffffffffffffffffffff16815260200190815260200160002060008282546113f49190612f76565b9250508190555050505080611408906130f2565b9050611215565b508473ffffffffffffffffffffffffffffffffffffffff168673ffffffffffffffffffffffffffffffffffffffff168273ffffffffffffffffffffffffffffffffffffffff167f4a39dc06d4c0dbc64b70af90fd698a233a518aa5d07e595d983b8c0526c8f7fb8787604051611486929190612bff565b60405180910390a461149c818787878787611d61565b505050505050565b600073ffffffffffffffffffffffffffffffffffffffff168473ffffffffffffffffffffffffffffffffffffffff161415611514576040517f08c379a000000000000000000000000000000000000000000000000000000000815260040161150b90612df3565b60405180910390fd5b8151835114611558576040517f08c379a000000000000000000000000000000000000000000000000000000000815260040161154f90612dd3565b60405180910390fd5b600061156261113c565b905061157381600087878787611d59565b60005b8451811015611678578381815181106115b8577f4e487b7100000000000000000000000000000000000000000000000000000000600052603260045260246000fd5b60200260200101516000808784815181106115fc577f4e487b7100000000000000000000000000000000000000000000000000000000600052603260045260246000fd5b6020026020010151815260200190815260200160002060008873ffffffffffffffffffffffffffffffffffffffff1673ffffffffffffffffffffffffffffffffffffffff168152602001908152602001600020600082825461165e9190612f76565b925050819055508080611670906130f2565b915050611576565b508473ffffffffffffffffffffffffffffffffffffffff16600073ffffffffffffffffffffffffffffffffffffffff168273ffffffffffffffffffffffffffffffffffffffff167f4a39dc06d4c0dbc64b70af90fd698a233a518aa5d07e595d983b8c0526c8f7fb87876040516116f0929190612bff565b60405180910390a461170781600087878787611d61565b5050505050565b6000600360009054906101000a900473ffffffffffffffffffffffffffffffffffffffff16905081600360006101000a81548173ffffffffffffffffffffffffffffffffffffffff021916908373ffffffffffffffffffffffffffffffffffffffff1602179055508173ffffffffffffffffffffffffffffffffffffffff168173ffffffffffffffffffffffffffffffffffffffff167f8be0079c531659141344cd1fd0a4f28419497f9722a3daafe3b4186f6b6457e060405160405180910390a35050565b8173ffffffffffffffffffffffffffffffffffffffff168373ffffffffffffffffffffffffffffffffffffffff161415611843576040517f08c379a000000000000000000000000000000000000000000000000000000000815260040161183a90612d93565b60405180910390fd5b80600160008573ffffffffffffffffffffffffffffffffffffffff1673ffffffffffffffffffffffffffffffffffffffff16815260200190815260200160002060008473ffffffffffffffffffffffffffffffffffffffff1673ffffffffffffffffffffffffffffffffffffffff16815260200190815260200160002060006101000a81548160ff0219169083151502179055508173ffffffffffffffffffffffffffffffffffffffff168373ffffffffffffffffffffffffffffffffffffffff167f17307eab39ab6107e8899845ad3d59bd9653f200f220920489ca2b5937696c31836040516119349190612c36565b60405180910390a3505050565b600073ffffffffffffffffffffffffffffffffffffffff168473ffffffffffffffffffffffffffffffffffffffff1614156119b1576040517f08c379a00000000000000000000000000000000000000000000000000000000081526004016119a890612df3565b60405180910390fd5b60006119bb61113c565b90506119dc816000876119cd88611f48565b6119d688611f48565b87611d59565b8260008086815260200190815260200160002060008773ffffffffffffffffffffffffffffffffffffffff1673ffffffffffffffffffffffffffffffffffffffff1681526020019081526020016000206000828254611a3b9190612f76565b925050819055508473ffffffffffffffffffffffffffffffffffffffff16600073ffffffffffffffffffffffffffffffffffffffff168273ffffffffffffffffffffffffffffffffffffffff167fc3d58168c5ae7397731d063d5bbf3d657854427343f4c083240f7aacaa2d0f628787604051611ab9929190612e2e565b60405180910390a4611ad08160008787878761200e565b5050505050565b600073ffffffffffffffffffffffffffffffffffffffff168473ffffffffffffffffffffffffffffffffffffffff161415611b47576040517f08c379a0000000000000000000000000000000000000000000000000000000008152600401611b3e90612d13565b60405180910390fd5b6000611b5161113c565b9050611b71818787611b6288611f48565b611b6b88611f48565b87611d59565b600080600086815260200190815260200160002060008873ffffffffffffffffffffffffffffffffffffffff1673ffffffffffffffffffffffffffffffffffffffff16815260200190815260200160002054905083811015611c08576040517f08c379a0000000000000000000000000000000000000000000000000000000008152600401611bff90612d53565b60405180910390fd5b83810360008087815260200190815260200160002060008973ffffffffffffffffffffffffffffffffffffffff1673ffffffffffffffffffffffffffffffffffffffff168152602001908152602001600020819055508360008087815260200190815260200160002060008873ffffffffffffffffffffffffffffffffffffffff1673ffffffffffffffffffffffffffffffffffffffff1681526020019081526020016000206000828254611cbd9190612f76565b925050819055508573ffffffffffffffffffffffffffffffffffffffff168773ffffffffffffffffffffffffffffffffffffffff168373ffffffffffffffffffffffffffffffffffffffff167fc3d58168c5ae7397731d063d5bbf3d657854427343f4c083240f7aacaa2d0f628888604051611d3a929190612e2e565b60405180910390a4611d5082888888888861200e565b50505050505050565b505050505050565b611d808473ffffffffffffffffffffffffffffffffffffffff166110af565b15611f40578373ffffffffffffffffffffffffffffffffffffffff1663bc197c8187878686866040518663ffffffff1660e01b8152600401611dc6959493929190612b1b565b602060405180830381600087803b158015611de057600080fd5b505af1925050508015611e1157506040513d601f19601f82011682018060405250810190611e0e91906127c3565b60015b611eb757611e1d6131c8565b806308c379a01415611e7a5750611e326135e5565b80611e3d5750611e7c565b806040517f08c379a0000000000000000000000000000000000000000000000000000000008152600401611e719190612c51565b60405180910390fd5b505b6040517f08c379a0000000000000000000000000000000000000000000000000000000008152600401611eae90612c73565b60405180910390fd5b63bc197c8160e01b7bffffffffffffffffffffffffffffffffffffffffffffffffffffffff1916817bffffffffffffffffffffffffffffffffffffffffffffffffffffffff191614611f3e576040517f08c379a0000000000000000000000000000000000000000000000000000000008152600401611f3590612c93565b60405180910390fd5b505b505050505050565b60606000600167ffffffffffffffff811115611f8d577f4e487b7100000000000000000000000000000000000000000000000000000000600052604160045260246000fd5b604051908082528060200260200182016040528015611fbb5781602001602082028036833780820191505090505b5090508281600081518110611ff9577f4e487b7100000000000000000000000000000000000000000000000000000000600052603260045260246000fd5b60200260200101818152505080915050919050565b61202d8473ffffffffffffffffffffffffffffffffffffffff166110af565b156121ed578373ffffffffffffffffffffffffffffffffffffffff1663f23a6e6187878686866040518663ffffffff1660e01b8152600401612073959493929190612b83565b602060405180830381600087803b15801561208d57600080fd5b505af19250505080156120be57506040513d601f19601f820116820180604052508101906120bb91906127c3565b60015b612164576120ca6131c8565b806308c379a0141561212757506120df6135e5565b806120ea5750612129565b806040517f08c379a000000000000000000000000000000000000000000000000000000000815260040161211e9190612c51565b60405180910390fd5b505b6040517f08c379a000000000000000000000000000000000000000000000000000000000815260040161215b90612c73565b60405180910390fd5b63f23a6e6160e01b7bffffffffffffffffffffffffffffffffffffffffffffffffffffffff1916817bffffffffffffffffffffffffffffffffffffffffffffffffffffffff1916146121eb576040517f08c379a00000000000000000000000000000000000000000000000000000000081526004016121e290612c93565b60405180910390fd5b505b505050505050565b600061220861220384612e7c565b612e57565b9050808382526020820190508285602086028201111561222757600080fd5b60005b85811015612257578161223d888261230b565b84526020840193506020830192505060018101905061222a565b5050509392505050565b600061227461226f84612ea8565b612e57565b9050808382526020820190508285602086028201111561229357600080fd5b60005b858110156122c357816122a988826123dd565b845260208401935060208301925050600181019050612296565b5050509392505050565b60006122e06122db84612ed4565b612e57565b9050828152602081018484840111156122f857600080fd5b61230384828561304d565b509392505050565b60008135905061231a8161367b565b92915050565b600082601f83011261233157600080fd5b81356123418482602086016121f5565b91505092915050565b600082601f83011261235b57600080fd5b813561236b848260208601612261565b91505092915050565b60008135905061238381613692565b92915050565b600081359050612398816136a9565b92915050565b6000815190506123ad816136a9565b92915050565b600082601f8301126123c457600080fd5b81356123d48482602086016122cd565b91505092915050565b6000813590506123ec816136c0565b92915050565b600081359050612401816136d7565b92915050565b60006020828403121561241957600080fd5b60006124278482850161230b565b91505092915050565b6000806040838503121561244357600080fd5b60006124518582860161230b565b92505060206124628582860161230b565b9150509250929050565b600080600080600060a0868803121561248457600080fd5b60006124928882890161230b565b95505060206124a38882890161230b565b945050604086013567ffffffffffffffff8111156124c057600080fd5b6124cc8882890161234a565b935050606086013567ffffffffffffffff8111156124e957600080fd5b6124f58882890161234a565b925050608086013567ffffffffffffffff81111561251257600080fd5b61251e888289016123b3565b9150509295509295909350565b600080600080600060a0868803121561254357600080fd5b60006125518882890161230b565b95505060206125628882890161230b565b9450506040612573888289016123dd565b9350506060612584888289016123dd565b925050608086013567ffffffffffffffff8111156125a157600080fd5b6125ad888289016123b3565b9150509295509295909350565b6000806000606084860312156125cf57600080fd5b60006125dd8682870161230b565b935050602084013567ffffffffffffffff8111156125fa57600080fd5b6126068682870161234a565b925050604084013567ffffffffffffffff81111561262357600080fd5b61262f8682870161234a565b9150509250925092565b6000806040838503121561264c57600080fd5b600061265a8582860161230b565b925050602061266b85828601612374565b9150509250929050565b6000806040838503121561268857600080fd5b60006126968582860161230b565b92505060206126a7858286016123dd565b9150509250929050565b600080604083850312156126c457600080fd5b60006126d28582860161230b565b92505060206126e3858286016123f2565b9150509250929050565b6000602082840312156126ff57600080fd5b600082013567ffffffffffffffff81111561271957600080fd5b61272584828501612320565b91505092915050565b6000806040838503121561274157600080fd5b600083013567ffffffffffffffff81111561275b57600080fd5b61276785828601612320565b925050602083013567ffffffffffffffff81111561278457600080fd5b6127908582860161234a565b9150509250929050565b6000602082840312156127ac57600080fd5b60006127ba84828501612389565b91505092915050565b6000602082840312156127d557600080fd5b60006127e38482850161239e565b91505092915050565b6000602082840312156127fe57600080fd5b600061280c848285016123dd565b91505092915050565b60006128218383612ae2565b60208301905092915050565b61283681612fcc565b82525050565b600061284782612f15565b6128518185612f43565b935061285c83612f05565b8060005b8381101561288d5781516128748882612815565b975061287f83612f36565b925050600181019050612860565b5085935050505092915050565b6128a381612fde565b82525050565b60006128b482612f20565b6128be8185612f54565b93506128ce81856020860161305c565b6128d7816131ea565b840191505092915050565b60006128ed82612f2b565b6128f78185612f65565b935061290781856020860161305c565b612910816131ea565b840191505092915050565b6000612928603483612f65565b915061293382613208565b604082019050919050565b600061294b602883612f65565b915061295682613257565b604082019050919050565b600061296e602b83612f65565b9150612979826132a6565b604082019050919050565b6000612991602683612f65565b915061299c826132f5565b604082019050919050565b60006129b4602983612f65565b91506129bf82613344565b604082019050919050565b60006129d7602583612f65565b91506129e282613393565b604082019050919050565b60006129fa603283612f65565b9150612a05826133e2565b604082019050919050565b6000612a1d602a83612f65565b9150612a2882613431565b604082019050919050565b6000612a40602083612f65565b9150612a4b82613480565b602082019050919050565b6000612a63602983612f65565b9150612a6e826134a9565b604082019050919050565b6000612a86602983612f65565b9150612a91826134f8565b604082019050919050565b6000612aa9602883612f65565b9150612ab482613547565b604082019050919050565b6000612acc602183612f65565b9150612ad782613596565b604082019050919050565b612aeb81613036565b82525050565b612afa81613036565b82525050565b6000602082019050612b15600083018461282d565b92915050565b600060a082019050612b30600083018861282d565b612b3d602083018761282d565b8181036040830152612b4f818661283c565b90508181036060830152612b63818561283c565b90508181036080830152612b7781846128a9565b90509695505050505050565b600060a082019050612b98600083018861282d565b612ba5602083018761282d565b612bb26040830186612af1565b612bbf6060830185612af1565b8181036080830152612bd181846128a9565b90509695505050505050565b60006020820190508181036000830152612bf7818461283c565b905092915050565b60006040820190508181036000830152612c19818561283c565b90508181036020830152612c2d818461283c565b90509392505050565b6000602082019050612c4b600083018461289a565b92915050565b60006020820190508181036000830152612c6b81846128e2565b905092915050565b60006020820190508181036000830152612c8c8161291b565b9050919050565b60006020820190508181036000830152612cac8161293e565b9050919050565b60006020820190508181036000830152612ccc81612961565b9050919050565b60006020820190508181036000830152612cec81612984565b9050919050565b60006020820190508181036000830152612d0c816129a7565b9050919050565b60006020820190508181036000830152612d2c816129ca565b9050919050565b60006020820190508181036000830152612d4c816129ed565b9050919050565b60006020820190508181036000830152612d6c81612a10565b9050919050565b60006020820190508181036000830152612d8c81612a33565b9050919050565b60006020820190508181036000830152612dac81612a56565b9050919050565b60006020820190508181036000830152612dcc81612a79565b9050919050565b60006020820190508181036000830152612dec81612a9c565b9050919050565b60006020820190508181036000830152612e0c81612abf565b9050919050565b6000602082019050612e286000830184612af1565b92915050565b6000604082019050612e436000830185612af1565b612e506020830184612af1565b9392505050565b6000612e61612e72565b9050612e6d82826130c1565b919050565b6000604051905090565b600067ffffffffffffffff821115612e9757612e96613199565b5b602082029050602081019050919050565b600067ffffffffffffffff821115612ec357612ec2613199565b5b602082029050602081019050919050565b600067ffffffffffffffff821115612eef57612eee613199565b5b612ef8826131ea565b9050602081019050919050565b6000819050602082019050919050565b600081519050919050565b600081519050919050565b600081519050919050565b6000602082019050919050565b600082825260208201905092915050565b600082825260208201905092915050565b600082825260208201905092915050565b6000612f8182613036565b9150612f8c83613036565b9250827fffffffffffffffffffffffffffffffffffffffffffffffffffffffffffffffff03821115612fc157612fc061313b565b5b828201905092915050565b6000612fd782613016565b9050919050565b60008115159050919050565b60007fffffffff0000000000000000000000000000000000000000000000000000000082169050919050565b600073ffffffffffffffffffffffffffffffffffffffff82169050919050565b6000819050919050565b600060ff82169050919050565b82818337600083830152505050565b60005b8381101561307a57808201518184015260208101905061305f565b83811115613089576000848401525b50505050565b600060028204905060018216806130a757607f821691505b602082108114156130bb576130ba61316a565b5b50919050565b6130ca826131ea565b810181811067ffffffffffffffff821117156130e9576130e8613199565b5b80604052505050565b60006130fd82613036565b91507fffffffffffffffffffffffffffffffffffffffffffffffffffffffffffffffff8214156131305761312f61313b565b5b600182019050919050565b7f4e487b7100000000000000000000000000000000000000000000000000000000600052601160045260246000fd5b7f4e487b7100000000000000000000000000000000000000000000000000000000600052602260045260246000fd5b7f4e487b7100000000000000000000000000000000000000000000000000000000600052604160045260246000fd5b600060033d11156131e75760046000803e6131e46000516131fb565b90505b90565b6000601f19601f8301169050919050565b60008160e01c9050919050565b7f455243313135353a207472616e7366657220746f206e6f6e204552433131353560008201527f526563656976657220696d706c656d656e746572000000000000000000000000602082015250565b7f455243313135353a204552433131353552656365697665722072656a6563746560008201527f6420746f6b656e73000000000000000000000000000000000000000000000000602082015250565b7f455243313135353a2062616c616e636520717565727920666f7220746865207a60008201527f65726f2061646472657373000000000000000000000000000000000000000000602082015250565b7f4f776e61626c653a206e6577206f776e657220697320746865207a65726f206160008201527f6464726573730000000000000000000000000000000000000000000000000000602082015250565b7f455243313135353a2063616c6c6572206973206e6f74206f776e6572206e6f7260008201527f20617070726f7665640000000000000000000000000000000000000000000000602082015250565b7f455243313135353a207472616e7366657220746f20746865207a65726f20616460008201527f6472657373000000000000000000000000000000000000000000000000000000602082015250565b7f455243313135353a207472616e736665722063616c6c6572206973206e6f742060008201527f6f776e6572206e6f7220617070726f7665640000000000000000000000000000602082015250565b7f455243313135353a20696e73756666696369656e742062616c616e636520666f60008201527f72207472616e7366657200000000000000000000000000000000000000000000602082015250565b7f4f776e61626c653a2063616c6c6572206973206e6f7420746865206f776e6572600082015250565b7f455243313135353a2073657474696e6720617070726f76616c2073746174757360008201527f20666f722073656c660000000000000000000000000000000000000000000000602082015250565b7f455243313135353a206163636f756e747320616e6420696473206c656e67746860008201527f206d69736d617463680000000000000000000000000000000000000000000000602082015250565b7f455243313135353a2069647320616e6420616d6f756e7473206c656e6774682060008201527f6d69736d61746368000000000000000000000000000000000000000000000000602082015250565b7f455243313135353a206d696e7420746f20746865207a65726f2061646472657360008201527f7300000000000000000000000000000000000000000000000000000000000000602082015250565b600060443d10156135f557613678565b6135fd612e72565b60043d036004823e80513d602482011167ffffffffffffffff82111715613625575050613678565b808201805167ffffffffffffffff8111156136435750505050613678565b80602083010160043d038501811115613660575050505050613678565b61366f826020018501866130c1565b82955050505050505b90565b61368481612fcc565b811461368f57600080fd5b50565b61369b81612fde565b81146136a657600080fd5b50565b6136b281612fea565b81146136bd57600080fd5b50565b6136c981613036565b81146136d457600080fd5b50565b6136e081613040565b81146136eb57600080fd5b5056fea26469706673582212205702a1c9453cdcb3e7e45b6dc6977f9f4ff5a753dd870e425889481bc8a552fe64736f6c6343000804003368747470733a2f2f646f6c6f76657273652e636f6d2f6170692f6d657461646174612f7b69647d2e6a736f6e","linkReferences":{},"deployedLinkReferences":{}}